{
  "_format": "hh-sol-artifact-1",
  "contractName": "GaslessTransfer",
  "sourceName": "contracts/GaslessTransfer.sol",
  "abi": [
    {
      "inputs": [],
      "stateMutability": "nonpayable",
      "type": "constructor"
    },
    {
      "inputs": [],
      "name": "InvalidShortString",
      "type": "error"
    },
    {
      "inputs": [
        {
          "internalType": "string",
          "name": "str",
          "type": "string"
        }
      ],
      "name": "StringTooLong",
      "type": "error"
    },
    {
      "anonymous": false,
      "inputs": [],
      "name": "EIP712DomainChanged",
      "type": "event"
    },
    {
      "anonymous": false,
      "inputs": [
        {
          "indexed": true,
          "internalType": "address",
          "name": "owner",
          "type": "address"
        },
        {
          "indexed": true,
          "internalType": "address",
          "name": "spender",
          "type": "address"
        },
        {
          "indexed": true,
          "internalType": "address",
          "name": "token",
          "type": "address"
        },
        {
          "indexed": false,
          "internalType": "uint256",
          "name": "value",
          "type": "uint256"
        },
        {
          "indexed": false,
          "internalType": "uint256",
          "name": "deadline",
          "type": "uint256"
        }
      ],
      "name": "GaslessTransferExecuted",
      "type": "event"
    },
    {
      "inputs": [],
      "name": "DOMAIN_SEPARATOR",
      "outputs": [
        {
          "internalType": "bytes32",
          "name": "",
          "type": "bytes32"
        }
      ],
      "stateMutability": "view",
      "type": "function"
    },
    {
      "inputs": [],
      "name": "PERMIT_TYPEHASH",
      "outputs": [
        {
          "internalType": "bytes32",
          "name": "",
          "type": "bytes32"
        }
      ],
      "stateMutability": "view",
      "type": "function"
    },
    {
      "inputs": [],
      "name": "eip712Domain",
      "outputs": [
        {
          "internalType": "bytes1",
          "name": "fields",
          "type": "bytes1"
        },
        {
          "internalType": "string",
          "name": "name",
          "type": "string"
        },
        {
          "internalType": "string",
          "name": "version",
          "type": "string"
        },
        {
          "internalType": "uint256",
          "name": "chainId",
          "type": "uint256"
        },
        {
          "internalType": "address",
          "name": "verifyingContract",
          "type": "address"
        },
        {
          "internalType": "bytes32",
          "name": "salt",
          "type": "bytes32"
        },
        {
          "internalType": "uint256[]",
          "name": "extensions",
          "type": "uint256[]"
        }
      ],
      "stateMutability": "view",
      "type": "function"
    },
    {
      "inputs": [
        {
          "internalType": "address",
          "name": "token",
          "type": "address"
        },
        {
          "internalType": "address",
          "name": "owner",
          "type": "address"
        },
        {
          "internalType": "address",
          "name": "spender",
          "type": "address"
        },
        {
          "internalType": "uint256",
          "name": "value",
          "type": "uint256"
        },
        {
          "internalType": "uint256",
          "name": "deadline",
          "type": "uint256"
        },
        {
          "internalType": "uint8",
          "name": "v",
          "type": "uint8"
        },
        {
          "internalType": "bytes32",
          "name": "r",
          "type": "bytes32"
        },
        {
          "internalType": "bytes32",
          "name": "s",
          "type": "bytes32"
        }
      ],
      "name": "executeGaslessTransfer",
      "outputs": [],
      "stateMutability": "nonpayable",
      "type": "function"
    }
  ],
  "bytecode": "0x6101606040523480156200001257600080fd5b506040518060400160405280600f81526020017f4761736c6573735472616e7366657200000000000000000000000000000000008152506040518060400160405280600181526020017f3100000000000000000000000000000000000000000000000000000000000000815250620000956000836200013560201b90919060201c565b6101208181525050620000b36001826200013560201b90919060201c565b6101408181525050818051906020012060e08181525050808051906020012061010081815250504660a08181525050620000f26200018d60201b60201c565b608081815250503073ffffffffffffffffffffffffffffffffffffffff1660c08173ffffffffffffffffffffffffffffffffffffffff16815250505050620007e5565b60006020835110156200015b576200015383620001ea60201b60201c565b905062000187565b826200016d836200025760201b60201c565b60000190816200017e9190620004db565b5060ff60001b90505b92915050565b60007f8b73c3c69bb8fe3d512ecc4cf759cc79239f7b179b0ffacaa9a75d522b39400f60e051610100514630604051602001620001cf95949392919062000633565b60405160208183030381529060405280519060200120905090565b600080829050601f815111156200023a57826040517f305a27a90000000000000000000000000000000000000000000000000000000081526004016200023191906200071f565b60405180910390fd5b805181620002489062000775565b60001c1760001b915050919050565b6000819050919050565b600081519050919050565b7f4e487b7100000000000000000000000000000000000000000000000000000000600052604160045260246000fd5b7f4e487b7100000000000000000000000000000000000000000000000000000000600052602260045260246000fd5b60006002820490506001821680620002e357607f821691505b602082108103620002f957620002f86200029b565b5b50919050565b60008190508160005260206000209050919050565b60006020601f8301049050919050565b600082821b905092915050565b600060088302620003637fffffffffffffffffffffffffffffffffffffffffffffffffffffffffffffffff8262000324565b6200036f868362000324565b95508019841693508086168417925050509392505050565b6000819050919050565b6000819050919050565b6000620003bc620003b6620003b08462000387565b62000391565b62000387565b9050919050565b6000819050919050565b620003d8836200039b565b620003f0620003e782620003c3565b84845462000331565b825550505050565b600090565b62000407620003f8565b62000414818484620003cd565b505050565b5b818110156200043c5762000430600082620003fd565b6001810190506200041a565b5050565b601f8211156200048b576200045581620002ff565b620004608462000314565b8101602085101562000470578190505b620004886200047f8562000314565b83018262000419565b50505b505050565b600082821c905092915050565b6000620004b06000198460080262000490565b1980831691505092915050565b6000620004cb83836200049d565b9150826002028217905092915050565b620004e68262000261565b67ffffffffffffffff8111156200050257620005016200026c565b5b6200050e8254620002ca565b6200051b82828562000440565b600060209050601f8311600181146200055357600084156200053e578287015190505b6200054a8582620004bd565b865550620005ba565b601f1984166200056386620002ff565b60005b828110156200058d5784890151825560018201915060208501945060208101905062000566565b86831015620005ad5784890151620005a9601f8916826200049d565b8355505b6001600288020188555050505b505050505050565b6000819050919050565b620005d781620005c2565b82525050565b620005e88162000387565b82525050565b600073ffffffffffffffffffffffffffffffffffffffff82169050919050565b60006200061b82620005ee565b9050919050565b6200062d816200060e565b82525050565b600060a0820190506200064a6000830188620005cc565b620006596020830187620005cc565b620006686040830186620005cc565b620006776060830185620005dd565b62000686608083018462000622565b9695505050505050565b600082825260208201905092915050565b60005b83811015620006c1578082015181840152602081019050620006a4565b60008484015250505050565b6000601f19601f8301169050919050565b6000620006eb8262000261565b620006f7818562000690565b935062000709818560208601620006a1565b6200071481620006cd565b840191505092915050565b600060208201905081810360008301526200073b8184620006de565b905092915050565b600081519050919050565b6000819050602082019050919050565b60006200076c8251620005c2565b80915050919050565b6000620007828262000743565b826200078e846200074e565b90506200079b816200075e565b92506020821015620007de57620007d97fffffffffffffffffffffffffffffffffffffffffffffffffffffffffffffffff8360200360080262000324565b831692505b5050919050565b60805160a05160c05160e051610100516101205161014051610d7f6200084060003960006104690152600061042e015260006104e1015260006104c001526000610372015260006103c8015260006103f10152610d7f6000f3fe608060405234801561001057600080fd5b506004361061004c5760003560e01c806330adf81f146100515780633644e5151461006f5780633afee5c11461008d57806384b0196e146100a9575b600080fd5b6100596100cd565b60405161006691906106be565b60405180910390f35b6100776100f1565b60405161008491906106be565b60405180910390f35b6100a760048036038101906100a291906107d7565b610100565b005b6100b16102c4565b6040516100c49796959493929190610a34565b60405180910390f35b7f6e71edae12b1b97f4d1f60370fef10105fa2faae0126114a169c64845d6126c981565b60006100fb61036e565b905090565b8773ffffffffffffffffffffffffffffffffffffffff1663d505accf883088888888886040518863ffffffff1660e01b81526004016101459796959493929190610ac7565b600060405180830381600087803b15801561015f57600080fd5b505af1158015610173573d6000803e3d6000fd5b5050505060008873ffffffffffffffffffffffffffffffffffffffff166323b872dd8989896040518463ffffffff1660e01b81526004016101b693929190610b36565b6020604051808303816000875af11580156101d5573d6000803e3d6000fd5b505050506040513d601f19601f820116820180604052508101906101f99190610ba5565b90508061023b576040517f08c379a000000000000000000000000000000000000000000000000000000000815260040161023290610c1e565b60405180910390fd5b8873ffffffffffffffffffffffffffffffffffffffff168773ffffffffffffffffffffffffffffffffffffffff168973ffffffffffffffffffffffffffffffffffffffff167fdb755f9b0c52c6dbdd9d56a310d695b882db2e79bc23d53b6ad1bcd141571de189896040516102b1929190610c3e565b60405180910390a4505050505050505050565b6000606080600080600060606102d8610425565b6102e0610460565b46306000801b600067ffffffffffffffff81111561030157610300610c67565b5b60405190808252806020026020018201604052801561032f5781602001602082028036833780820191505090505b507f0f00000000000000000000000000000000000000000000000000000000000000959493929190965096509650965096509650965090919293949596565b60007f000000000000000000000000000000000000000000000000000000000000000073ffffffffffffffffffffffffffffffffffffffff163073ffffffffffffffffffffffffffffffffffffffff161480156103ea57507f000000000000000000000000000000000000000000000000000000000000000046145b15610417577f00000000000000000000000000000000000000000000000000000000000000009050610422565b61041f61049b565b90505b90565b606061045b60007f000000000000000000000000000000000000000000000000000000000000000061053190919063ffffffff16565b905090565b606061049660017f000000000000000000000000000000000000000000000000000000000000000061053190919063ffffffff16565b905090565b60007f8b73c3c69bb8fe3d512ecc4cf759cc79239f7b179b0ffacaa9a75d522b39400f7f00000000000000000000000000000000000000000000000000000000000000007f00000000000000000000000000000000000000000000000000000000000000004630604051602001610516959493929190610c96565b60405160208183030381529060405280519060200120905090565b606060ff60001b831461054e57610547836105e1565b90506105db565b81805461055a90610d18565b80601f016020809104026020016040519081016040528092919081815260200182805461058690610d18565b80156105d35780601f106105a8576101008083540402835291602001916105d3565b820191906000526020600020905b8154815290600101906020018083116105b657829003601f168201915b505050505090505b92915050565b606060006105ee83610655565b90506000602067ffffffffffffffff81111561060d5761060c610c67565b5b6040519080825280601f01601f19166020018201604052801561063f5781602001600182028036833780820191505090505b5090508181528360208201528092505050919050565b60008060ff8360001c169050601f81111561069c576040517fb3512b0c00000000000000000000000000000000000000000000000000000000815260040160405180910390fd5b80915050919050565b6000819050919050565b6106b8816106a5565b82525050565b60006020820190506106d360008301846106af565b92915050565b600080fd5b600073ffffffffffffffffffffffffffffffffffffffff82169050919050565b6000610709826106de565b9050919050565b610719816106fe565b811461072457600080fd5b50565b60008135905061073681610710565b92915050565b6000819050919050565b61074f8161073c565b811461075a57600080fd5b50565b60008135905061076c81610746565b92915050565b600060ff82169050919050565b61078881610772565b811461079357600080fd5b50565b6000813590506107a58161077f565b92915050565b6107b4816106a5565b81146107bf57600080fd5b50565b6000813590506107d1816107ab565b92915050565b600080600080600080600080610100898b0312156107f8576107f76106d9565b5b60006108068b828c01610727565b98505060206108178b828c01610727565b97505060406108288b828c01610727565b96505060606108398b828c0161075d565b955050608061084a8b828c0161075d565b94505060a061085b8b828c01610796565b93505060c061086c8b828c016107c2565b92505060e061087d8b828c016107c2565b9150509295985092959890939650565b60007fff0000000000000000000000000000000000000000000000000000000000000082169050919050565b6108c28161088d565b82525050565b600081519050919050565b600082825260208201905092915050565b60005b838110156109025780820151818401526020810190506108e7565b60008484015250505050565b6000601f19601f8301169050919050565b600061092a826108c8565b61093481856108d3565b93506109448185602086016108e4565b61094d8161090e565b840191505092915050565b6109618161073c565b82525050565b610970816106fe565b82525050565b600081519050919050565b600082825260208201905092915050565b6000819050602082019050919050565b6109ab8161073c565b82525050565b60006109bd83836109a2565b60208301905092915050565b6000602082019050919050565b60006109e182610976565b6109eb8185610981565b93506109f683610992565b8060005b83811015610a27578151610a0e88826109b1565b9750610a19836109c9565b9250506001810190506109fa565b5085935050505092915050565b600060e082019050610a49600083018a6108b9565b8181036020830152610a5b818961091f565b90508181036040830152610a6f818861091f565b9050610a7e6060830187610958565b610a8b6080830186610967565b610a9860a08301856106af565b81810360c0830152610aaa81846109d6565b905098975050505050505050565b610ac181610772565b82525050565b600060e082019050610adc600083018a610967565b610ae96020830189610967565b610af66040830188610958565b610b036060830187610958565b610b106080830186610ab8565b610b1d60a08301856106af565b610b2a60c08301846106af565b98975050505050505050565b6000606082019050610b4b6000830186610967565b610b586020830185610967565b610b656040830184610958565b949350505050565b60008115159050919050565b610b8281610b6d565b8114610b8d57600080fd5b50565b600081519050610b9f81610b79565b92915050565b600060208284031215610bbb57610bba6106d9565b5b6000610bc984828501610b90565b91505092915050565b7f4761736c6573735472616e736665723a207472616e73666572206661696c6564600082015250565b6000610c086020836108d3565b9150610c1382610bd2565b602082019050919050565b60006020820190508181036000830152610c3781610bfb565b9050919050565b6000604082019050610c536000830185610958565b610c606020830184610958565b9392505050565b7f4e487b7100000000000000000000000000000000000000000000000000000000600052604160045260246000fd5b600060a082019050610cab60008301886106af565b610cb860208301876106af565b610cc560408301866106af565b610cd26060830185610958565b610cdf6080830184610967565b9695505050505050565b7f4e487b7100000000000000000000000000000000000000000000000000000000600052602260045260246000fd5b60006002820490506001821680610d3057607f821691505b602082108103610d4357610d42610ce9565b5b5091905056fea26469706673582212208f9b21866343cbf4aecc32c074635313c4b2447a9a96ca32b660a361656810b064736f6c63430008140033",
  "linkReferences": {},
  "deployedLinkReferences": {}
}