{
  "_format": "hh-sol-artifact-1",
  "contractName": "GaslessTransfer",
  "sourceName": "contracts/GaslessTransfer.sol",
  "abi": [
    {
      "inputs": [],
      "stateMutability": "nonpayable",
      "type": "constructor"
    },
    {
      "inputs": [],
      "name": "ECDSAInvalidSignature",
      "type": "error"
    },
    {
      "inputs": [
        {
          "internalType": "uint256",
          "name": "length",
          "type": "uint256"
        }
      ],
      "name": "ECDSAInvalidSignatureLength",
      "type": "error"
    },
    {
      "inputs": [
        {
          "internalType": "bytes32",
          "name": "s",
          "type": "bytes32"
        }
      ],
      "name": "ECDSAInvalidSignatureS",
      "type": "error"
    },
    {
      "inputs": [],
      "name": "InvalidShortString",
      "type": "error"
    },
    {
      "inputs": [
        {
          "internalType": "string",
          "name": "str",
          "type": "string"
        }
      ],
      "name": "StringTooLong",
      "type": "error"
    },
    {
      "anonymous": false,
      "inputs": [],
      "name": "EIP712DomainChanged",
      "type": "event"
    },
    {
      "anonymous": false,
      "inputs": [
        {
          "indexed": true,
          "internalType": "address",
          "name": "owner",
          "type": "address"
        },
        {
          "indexed": true,
          "internalType": "address",
          "name": "recipient",
          "type": "address"
        },
        {
          "indexed": true,
          "internalType": "address",
          "name": "token",
          "type": "address"
        },
        {
          "indexed": false,
          "internalType": "uint256",
          "name": "value",
          "type": "uint256"
        },
        {
          "indexed": false,
          "internalType": "uint256",
          "name": "deadline",
          "type": "uint256"
        }
      ],
      "name": "GaslessTransferExecuted",
      "type": "event"
    },
    {
      "inputs": [],
      "name": "DOMAIN_SEPARATOR",
      "outputs": [
        {
          "internalType": "bytes32",
          "name": "",
          "type": "bytes32"
        }
      ],
      "stateMutability": "view",
      "type": "function"
    },
    {
      "inputs": [],
      "name": "TRANSFER_TYPEHASH",
      "outputs": [
        {
          "internalType": "bytes32",
          "name": "",
          "type": "bytes32"
        }
      ],
      "stateMutability": "view",
      "type": "function"
    },
    {
      "inputs": [],
      "name": "eip712Domain",
      "outputs": [
        {
          "internalType": "bytes1",
          "name": "fields",
          "type": "bytes1"
        },
        {
          "internalType": "string",
          "name": "name",
          "type": "string"
        },
        {
          "internalType": "string",
          "name": "version",
          "type": "string"
        },
        {
          "internalType": "uint256",
          "name": "chainId",
          "type": "uint256"
        },
        {
          "internalType": "address",
          "name": "verifyingContract",
          "type": "address"
        },
        {
          "internalType": "bytes32",
          "name": "salt",
          "type": "bytes32"
        },
        {
          "internalType": "uint256[]",
          "name": "extensions",
          "type": "uint256[]"
        }
      ],
      "stateMutability": "view",
      "type": "function"
    },
    {
      "inputs": [
        {
          "internalType": "address",
          "name": "token",
          "type": "address"
        },
        {
          "internalType": "address",
          "name": "owner",
          "type": "address"
        },
        {
          "internalType": "address",
          "name": "recipient",
          "type": "address"
        },
        {
          "internalType": "uint256",
          "name": "value",
          "type": "uint256"
        },
        {
          "internalType": "uint256",
          "name": "deadline",
          "type": "uint256"
        },
        {
          "internalType": "uint8",
          "name": "v_u2c",
          "type": "uint8"
        },
        {
          "internalType": "bytes32",
          "name": "r_u2c",
          "type": "bytes32"
        },
        {
          "internalType": "bytes32",
          "name": "s_u2c",
          "type": "bytes32"
        },
        {
          "internalType": "uint8",
          "name": "v_u2t",
          "type": "uint8"
        },
        {
          "internalType": "bytes32",
          "name": "r_u2t",
          "type": "bytes32"
        },
        {
          "internalType": "bytes32",
          "name": "s_u2t",
          "type": "bytes32"
        }
      ],
      "name": "executeGaslessTransfer",
      "outputs": [],
      "stateMutability": "nonpayable",
      "type": "function"
    },
    {
      "inputs": [
        {
          "internalType": "address",
          "name": "",
          "type": "address"
        }
      ],
      "name": "nonces",
      "outputs": [
        {
          "internalType": "uint256",
          "name": "",
          "type": "uint256"
        }
      ],
      "stateMutability": "view",
      "type": "function"
    },
    {
      "inputs": [
        {
          "internalType": "address",
          "name": "owner",
          "type": "address"
        },
        {
          "internalType": "address",
          "name": "recipient",
          "type": "address"
        },
        {
          "internalType": "uint256",
          "name": "value",
          "type": "uint256"
        },
        {
          "internalType": "uint256",
          "name": "deadline",
          "type": "uint256"
        },
        {
          "internalType": "uint8",
          "name": "v",
          "type": "uint8"
        },
        {
          "internalType": "bytes32",
          "name": "r",
          "type": "bytes32"
        },
        {
          "internalType": "bytes32",
          "name": "s",
          "type": "bytes32"
        }
      ],
      "name": "verifyTransferAuthorization",
      "outputs": [
        {
          "internalType": "bool",
          "name": "",
          "type": "bool"
        }
      ],
      "stateMutability": "view",
      "type": "function"
    }
  ],
  "bytecode": "0x6101606040523480156200001257600080fd5b506040518060400160405280600f81526020017f4761736c6573735472616e7366657200000000000000000000000000000000008152506040518060400160405280600181526020017f3100000000000000000000000000000000000000000000000000000000000000815250620000956000836200013560201b90919060201c565b6101208181525050620000b36001826200013560201b90919060201c565b6101408181525050818051906020012060e08181525050808051906020012061010081815250504660a08181525050620000f26200018d60201b60201c565b608081815250503073ffffffffffffffffffffffffffffffffffffffff1660c08173ffffffffffffffffffffffffffffffffffffffff16815250505050620007e5565b60006020835110156200015b576200015383620001ea60201b60201c565b905062000187565b826200016d836200025760201b60201c565b60000190816200017e9190620004db565b5060ff60001b90505b92915050565b60007f8b73c3c69bb8fe3d512ecc4cf759cc79239f7b179b0ffacaa9a75d522b39400f60e051610100514630604051602001620001cf95949392919062000633565b60405160208183030381529060405280519060200120905090565b600080829050601f815111156200023a57826040517f305a27a90000000000000000000000000000000000000000000000000000000081526004016200023191906200071f565b60405180910390fd5b805181620002489062000775565b60001c1760001b915050919050565b6000819050919050565b600081519050919050565b7f4e487b7100000000000000000000000000000000000000000000000000000000600052604160045260246000fd5b7f4e487b7100000000000000000000000000000000000000000000000000000000600052602260045260246000fd5b60006002820490506001821680620002e357607f821691505b602082108103620002f957620002f86200029b565b5b50919050565b60008190508160005260206000209050919050565b60006020601f8301049050919050565b600082821b905092915050565b600060088302620003637fffffffffffffffffffffffffffffffffffffffffffffffffffffffffffffffff8262000324565b6200036f868362000324565b95508019841693508086168417925050509392505050565b6000819050919050565b6000819050919050565b6000620003bc620003b6620003b08462000387565b62000391565b62000387565b9050919050565b6000819050919050565b620003d8836200039b565b620003f0620003e782620003c3565b84845462000331565b825550505050565b600090565b62000407620003f8565b62000414818484620003cd565b505050565b5b818110156200043c5762000430600082620003fd565b6001810190506200041a565b5050565b601f8211156200048b576200045581620002ff565b620004608462000314565b8101602085101562000470578190505b620004886200047f8562000314565b83018262000419565b50505b505050565b600082821c905092915050565b6000620004b06000198460080262000490565b1980831691505092915050565b6000620004cb83836200049d565b9150826002028217905092915050565b620004e68262000261565b67ffffffffffffffff8111156200050257620005016200026c565b5b6200050e8254620002ca565b6200051b82828562000440565b600060209050601f8311600181146200055357600084156200053e578287015190505b6200054a8582620004bd565b865550620005ba565b601f1984166200056386620002ff565b60005b828110156200058d5784890151825560018201915060208501945060208101905062000566565b86831015620005ad5784890151620005a9601f8916826200049d565b8355505b6001600288020188555050505b505050505050565b6000819050919050565b620005d781620005c2565b82525050565b620005e88162000387565b82525050565b600073ffffffffffffffffffffffffffffffffffffffff82169050919050565b60006200061b82620005ee565b9050919050565b6200062d816200060e565b82525050565b600060a0820190506200064a6000830188620005cc565b620006596020830187620005cc565b620006686040830186620005cc565b620006776060830185620005dd565b62000686608083018462000622565b9695505050505050565b600082825260208201905092915050565b60005b83811015620006c1578082015181840152602081019050620006a4565b60008484015250505050565b6000601f19601f8301169050919050565b6000620006eb8262000261565b620006f7818562000690565b935062000709818560208601620006a1565b6200071481620006cd565b840191505092915050565b600060208201905081810360008301526200073b8184620006de565b905092915050565b600081519050919050565b6000819050602082019050919050565b60006200076c8251620005c2565b80915050919050565b6000620007828262000743565b826200078e846200074e565b90506200079b816200075e565b92506020821015620007de57620007d97fffffffffffffffffffffffffffffffffffffffffffffffffffffffffffffffff8360200360080262000324565b831692505b5050919050565b60805160a05160c05160e05161010051610120516101405161167f6200084060003960006106d80152600061069d0152600061079a01526000610779015260006105e10152600061063701526000610660015261167f6000f3fe608060405234801561001057600080fd5b50600436106100615760003560e01c8062bf26f41461006657806328e970df146100845780633644e515146100a05780637ecebe00146100be57806384b0196e146100ee578063ce49fca214610112575b600080fd5b61006e610142565b60405161007b9190610c10565b60405180910390f35b61009e60048036038101906100999190610d29565b610166565b005b6100a8610415565b6040516100b59190610c10565b60405180910390f35b6100d860048036038101906100d39190610e1d565b610424565b6040516100e59190610e59565b60405180910390f35b6100f661043c565b604051610109979695949392919061100c565b60405180910390f35b61012c60048036038101906101279190611090565b6104e6565b604051610139919061114d565b60405180910390f35b7fdd1c6538aaae01bbe3996bd118af5f7c02231d763da5153c944ddeb135ae35ab81565b864211156101a9576040517f08c379a00000000000000000000000000000000000000000000000000000000081526004016101a0906111da565b60405180910390fd5b6101b88a8a8a8a8787876104e6565b6101f7576040517f08c379a00000000000000000000000000000000000000000000000000000000081526004016101ee9061126c565b60405180910390fd5b8a73ffffffffffffffffffffffffffffffffffffffff1663d505accf8b308b8b8b8b8b6040518863ffffffff1660e01b815260040161023c979695949392919061129b565b600060405180830381600087803b15801561025657600080fd5b505af115801561026a573d6000803e3d6000fd5b5050505060008b73ffffffffffffffffffffffffffffffffffffffff166323b872dd8c8c8c6040518463ffffffff1660e01b81526004016102ad9392919061130a565b6020604051808303816000875af11580156102cc573d6000803e3d6000fd5b505050506040513d601f19601f820116820180604052508101906102f0919061136d565b905080610332576040517f08c379a0000000000000000000000000000000000000000000000000000000008152600401610329906113e6565b60405180910390fd5b6001600260008d73ffffffffffffffffffffffffffffffffffffffff1673ffffffffffffffffffffffffffffffffffffffff16815260200190815260200160002060008282546103829190611435565b925050819055508b73ffffffffffffffffffffffffffffffffffffffff168a73ffffffffffffffffffffffffffffffffffffffff168c73ffffffffffffffffffffffffffffffffffffffff167fdb755f9b0c52c6dbdd9d56a310d695b882db2e79bc23d53b6ad1bcd141571de18c8c6040516103ff929190611469565b60405180910390a4505050505050505050505050565b600061041f6105dd565b905090565b60026020528060005260406000206000915090505481565b600060608060008060006060610450610694565b6104586106cf565b46306000801b600067ffffffffffffffff81111561047957610478611492565b5b6040519080825280602002602001820160405280156104a75781602001602082028036833780820191505090505b507f0f00000000000000000000000000000000000000000000000000000000000000959493929190965096509650965096509650965090919293949596565b600080600260008a73ffffffffffffffffffffffffffffffffffffffff1673ffffffffffffffffffffffffffffffffffffffff16815260200190815260200160002054905060007fdd1c6538aaae01bbe3996bd118af5f7c02231d763da5153c944ddeb135ae35ab8a8a8a858b604051602001610568969594939291906114c1565b604051602081830303815290604052805190602001209050600061058b8261070a565b9050600061059b82898989610724565b90508b73ffffffffffffffffffffffffffffffffffffffff168173ffffffffffffffffffffffffffffffffffffffff1614945050505050979650505050505050565b60007f000000000000000000000000000000000000000000000000000000000000000073ffffffffffffffffffffffffffffffffffffffff163073ffffffffffffffffffffffffffffffffffffffff1614801561065957507f000000000000000000000000000000000000000000000000000000000000000046145b15610686577f00000000000000000000000000000000000000000000000000000000000000009050610691565b61068e610754565b90505b90565b60606106ca60007f00000000000000000000000000000000000000000000000000000000000000006107ea90919063ffffffff16565b905090565b606061070560017f00000000000000000000000000000000000000000000000000000000000000006107ea90919063ffffffff16565b905090565b600061071d6107176105dd565b8361089a565b9050919050565b600080600080610736888888886108db565b92509250925061074682826109cf565b829350505050949350505050565b60007f8b73c3c69bb8fe3d512ecc4cf759cc79239f7b179b0ffacaa9a75d522b39400f7f00000000000000000000000000000000000000000000000000000000000000007f000000000000000000000000000000000000000000000000000000000000000046306040516020016107cf959493929190611522565b60405160208183030381529060405280519060200120905090565b606060ff60001b83146108075761080083610b33565b9050610894565b818054610813906115a4565b80601f016020809104026020016040519081016040528092919081815260200182805461083f906115a4565b801561088c5780601f106108615761010080835404028352916020019161088c565b820191906000526020600020905b81548152906001019060200180831161086f57829003601f168201915b505050505090505b92915050565b60006040517f190100000000000000000000000000000000000000000000000000000000000081528360028201528260228201526042812091505092915050565b60008060007f7fffffffffffffffffffffffffffffff5d576e7357a4501ddfe92f46681b20a08460001c111561091b5760006003859250925092506109c5565b60006001888888886040516000815260200160405260405161094094939291906115d5565b6020604051602081039080840390855afa158015610962573d6000803e3d6000fd5b505050602060405103519050600073ffffffffffffffffffffffffffffffffffffffff168173ffffffffffffffffffffffffffffffffffffffff16036109b657600060016000801b935093509350506109c5565b8060008060001b935093509350505b9450945094915050565b600060038111156109e3576109e261161a565b5b8260038111156109f6576109f561161a565b5b0315610b2f5760016003811115610a1057610a0f61161a565b5b826003811115610a2357610a2261161a565b5b03610a5a576040517ff645eedf00000000000000000000000000000000000000000000000000000000815260040160405180910390fd5b60026003811115610a6e57610a6d61161a565b5b826003811115610a8157610a8061161a565b5b03610ac6578060001c6040517ffce698f7000000000000000000000000000000000000000000000000000000008152600401610abd9190610e59565b60405180910390fd5b600380811115610ad957610ad861161a565b5b826003811115610aec57610aeb61161a565b5b03610b2e57806040517fd78bce0c000000000000000000000000000000000000000000000000000000008152600401610b259190610c10565b60405180910390fd5b5b5050565b60606000610b4083610ba7565b90506000602067ffffffffffffffff811115610b5f57610b5e611492565b5b6040519080825280601f01601f191660200182016040528015610b915781602001600182028036833780820191505090505b5090508181528360208201528092505050919050565b60008060ff8360001c169050601f811115610bee576040517fb3512b0c00000000000000000000000000000000000000000000000000000000815260040160405180910390fd5b80915050919050565b6000819050919050565b610c0a81610bf7565b82525050565b6000602082019050610c256000830184610c01565b92915050565b600080fd5b600073ffffffffffffffffffffffffffffffffffffffff82169050919050565b6000610c5b82610c30565b9050919050565b610c6b81610c50565b8114610c7657600080fd5b50565b600081359050610c8881610c62565b92915050565b6000819050919050565b610ca181610c8e565b8114610cac57600080fd5b50565b600081359050610cbe81610c98565b92915050565b600060ff82169050919050565b610cda81610cc4565b8114610ce557600080fd5b50565b600081359050610cf781610cd1565b92915050565b610d0681610bf7565b8114610d1157600080fd5b50565b600081359050610d2381610cfd565b92915050565b60008060008060008060008060008060006101608c8e031215610d4f57610d4e610c2b565b5b6000610d5d8e828f01610c79565b9b50506020610d6e8e828f01610c79565b9a50506040610d7f8e828f01610c79565b9950506060610d908e828f01610caf565b9850506080610da18e828f01610caf565b97505060a0610db28e828f01610ce8565b96505060c0610dc38e828f01610d14565b95505060e0610dd48e828f01610d14565b945050610100610de68e828f01610ce8565b935050610120610df88e828f01610d14565b925050610140610e0a8e828f01610d14565b9150509295989b509295989b9093969950565b600060208284031215610e3357610e32610c2b565b5b6000610e4184828501610c79565b91505092915050565b610e5381610c8e565b82525050565b6000602082019050610e6e6000830184610e4a565b92915050565b60007fff0000000000000000000000000000000000000000000000000000000000000082169050919050565b610ea981610e74565b82525050565b600081519050919050565b600082825260208201905092915050565b60005b83811015610ee9578082015181840152602081019050610ece565b60008484015250505050565b6000601f19601f8301169050919050565b6000610f1182610eaf565b610f1b8185610eba565b9350610f2b818560208601610ecb565b610f3481610ef5565b840191505092915050565b610f4881610c50565b82525050565b600081519050919050565b600082825260208201905092915050565b6000819050602082019050919050565b610f8381610c8e565b82525050565b6000610f958383610f7a565b60208301905092915050565b6000602082019050919050565b6000610fb982610f4e565b610fc38185610f59565b9350610fce83610f6a565b8060005b83811015610fff578151610fe68882610f89565b9750610ff183610fa1565b925050600181019050610fd2565b5085935050505092915050565b600060e082019050611021600083018a610ea0565b81810360208301526110338189610f06565b905081810360408301526110478188610f06565b90506110566060830187610e4a565b6110636080830186610f3f565b61107060a0830185610c01565b81810360c08301526110828184610fae565b905098975050505050505050565b600080600080600080600060e0888a0312156110af576110ae610c2b565b5b60006110bd8a828b01610c79565b97505060206110ce8a828b01610c79565b96505060406110df8a828b01610caf565b95505060606110f08a828b01610caf565b94505060806111018a828b01610ce8565b93505060a06111128a828b01610d14565b92505060c06111238a828b01610d14565b91505092959891949750929550565b60008115159050919050565b61114781611132565b82525050565b6000602082019050611162600083018461113e565b92915050565b7f4761736c6573735472616e736665723a206578706972656420646561646c696e60008201527f6500000000000000000000000000000000000000000000000000000000000000602082015250565b60006111c4602183610eba565b91506111cf82611168565b604082019050919050565b600060208201905081810360008301526111f3816111b7565b9050919050565b7f4761736c6573735472616e736665723a20696e76616c6964207472616e73666560008201527f7220617574686f72697a6174696f6e0000000000000000000000000000000000602082015250565b6000611256602f83610eba565b9150611261826111fa565b604082019050919050565b6000602082019050818103600083015261128581611249565b9050919050565b61129581610cc4565b82525050565b600060e0820190506112b0600083018a610f3f565b6112bd6020830189610f3f565b6112ca6040830188610e4a565b6112d76060830187610e4a565b6112e4608083018661128c565b6112f160a0830185610c01565b6112fe60c0830184610c01565b98975050505050505050565b600060608201905061131f6000830186610f3f565b61132c6020830185610f3f565b6113396040830184610e4a565b949350505050565b61134a81611132565b811461135557600080fd5b50565b60008151905061136781611341565b92915050565b60006020828403121561138357611382610c2b565b5b600061139184828501611358565b91505092915050565b7f4761736c6573735472616e736665723a207472616e73666572206661696c6564600082015250565b60006113d0602083610eba565b91506113db8261139a565b602082019050919050565b600060208201905081810360008301526113ff816113c3565b9050919050565b7f4e487b7100000000000000000000000000000000000000000000000000000000600052601160045260246000fd5b600061144082610c8e565b915061144b83610c8e565b925082820190508082111561146357611462611406565b5b92915050565b600060408201905061147e6000830185610e4a565b61148b6020830184610e4a565b9392505050565b7f4e487b7100000000000000000000000000000000000000000000000000000000600052604160045260246000fd5b600060c0820190506114d66000830189610c01565b6114e36020830188610f3f565b6114f06040830187610f3f565b6114fd6060830186610e4a565b61150a6080830185610e4a565b61151760a0830184610e4a565b979650505050505050565b600060a0820190506115376000830188610c01565b6115446020830187610c01565b6115516040830186610c01565b61155e6060830185610e4a565b61156b6080830184610f3f565b9695505050505050565b7f4e487b7100000000000000000000000000000000000000000000000000000000600052602260045260246000fd5b600060028204905060018216806115bc57607f821691505b6020821081036115cf576115ce611575565b5b50919050565b60006080820190506115ea6000830187610c01565b6115f7602083018661128c565b6116046040830185610c01565b6116116060830184610c01565b95945050505050565b7f4e487b7100000000000000000000000000000000000000000000000000000000600052602160045260246000fdfea26469706673582212202907fd0175ca93e396a06d559d58c90f25d11a435b78b349bd26b8c44ef6254564736f6c63430008140033",
  "linkReferences": {},
  "deployedLinkReferences": {}
}